:020000040800F2
:1000000000000220410E0008890600088B06000847
:100010008D0600088F060008910600080000000009
:10002000000000000000000000000000930600082F
:1000300095060008000000009706000899060008D1
:10004000910E0008910E0008910E0008910E000814
:10005000910E0008910E0008910E0008910E000804
:10006000910E0008910E0008910E0008910E0008F4
:10007000910E0008910E0008910E0008910E0008E4
:10008000910E0008910E0008910E0008910E0008D4
:10009000910E0008910E0008910E0008910E0008C4
:1000A000910E0008910E0008910E0008910E0008B4
:1000B000910E0008910E0008910E0008910E0008A4
:1000C000910E0008910E0008910E0008910E000894
:1000D000910E0008910E0008910E0008910E000884
:1000E000910E0008910E0008910E0008910E000874
:1000F000910E0008910E0008910E0008910E000864
:10010000910E0008910E0008910E0008910E000853
:10011000910E0008910E0008910E0008910E000843
:10012000910E0008910E0008910E0008910E000833
:10013000910E0008910E0008910E0008910E000823
:10014000910E0008910E0008910E0008910E000813
:10015000910E0008910E0008910E0008910E000803
:10016000910E0008910E0008910E0008910E0008F3
:10017000910E0008910E0008910E0008000000008A
:08018000910E0008910E000829
:100188000348044B834202D0034B03B1184770471E
:100198000C0000200C000020000000000548064963
:1001A8000B1AD90F01EBA301491002D0034B03B17D
:1001B800184770470C0000200C00002000000000C9
:1001C80010B5064C237843B9FFF7DAFF044B13B197
:1001D8000448AFF300800123237010BD0C000020F9
:1001E80000000000940E000808B5044B1BB1044938
:1001F8000448AFF30080BDE80840CFE700000000E6
:1002080010000020940E000870B50D4E0D4D761BA1
:10021800B61006D00024013455F8043B9847A6428E
:10022800F9D1094E094D761B00F030FEB61006D004
:100238000024013455F8043B9847A642F9D170BD13
:10024800C40E0008C40E0008C80E0008C40E00083A
:10025800F0B4860746D0541E002A3CD0CAB20346E2
:1002680002E014F1FF3436D303F8012B9D07F8D1CF
:10027800032C29D9CDB245EA05250F2C45EA0545B9
:1002880033D9A4F11006360903F1200707EB061746
:1002980003F1100242E9045542E902551032BA420C
:1002A800F8D1721C14F00C0F03EB021204F00F06C5
:1002B80013D0331F23F003030433134442F8045BC1
:1002C8009342FBD106F003042CB1C9B21C4403F8D5
:1002D800011B9C42FBD1F0BC704734461346002CEE
:1002E800F3D1F8E714460346C2E71A462646E0E784
:1002F80053B94AB9002908BF00281CBF4FF0FF3185
:100308004FF0FF3000F06EB9ADF1080C6DE904CE86
:1003180000F006F8DDF804E0DDE9022304B07047D8
:100328002DE9F047089D04468C46002B40F0838059
:100338008A42174647D9B2FA82F242B1C2F1200086
:1003480024FA00F09140974040EA010C94404FEAAB
:100358001748230CBCFBF8F61FFA87FE08FB16C1EA
:1003680043EA014306FB0EF1994209D9FB1806F14D
:10037800FF3080F01981994240F21681023E3B44D9
:100388005B1AA4B2B3FBF8F008FB103344EA034449
:1003980000FB0EFEA64509D93C1900F1FF3380F099
:1003A8000581A64540F2028102383C4440EA0640F5
:1003B800A4EB0E0400261DB1D4400023C5E9004378
:1003C8003146BDE8F08702B9FFDEB2FA82F2002AB0
:1003D80050D1CB1B4FEA174E1FFA87F80126B3FB03
:1003E800FEFC210C0EFB1C3341EA034108FB0CF315
:1003F8008B4207D979180CF1FF3002D28B4200F2F8
:10040800E9808446C91AA3B2B1FBFEF00EFB1011B5
:1004180043EA014408FB00F8A04507D93C1900F15C
:10042800FF3302D2A04500F2D9801846A4EB080495
:1004380040EA0C40BFE78B4209D9002D00F0B1809B
:100448000026C5E9000130463146BDE8F087B3FA19
:1004580083F6002E4AD18B4202D3824200F2B88042
:10046800841A61EB030101208C46002DA8D0C5E950
:10047800004CA5E7C2F1200320FA03F6974001FAE1
:1004880002F04FEA174ED9403043030CB1FBFEF699
:100498001FFA87F80EFB161143EA014306FB08F121
:1004A800994204FA02F409D9FB1806F1FF3C80F0DE
:1004B8008D80994240F28A80023E3B445B1A81B2A9
:1004C800B3FBFEF00EFB103341EA034100FB08F3D7
:1004D8008B4207D9791800F1FF3C73D28B4271D94E
:1004E80002383944CB1A40EA064678E7C6F1200CB0
:1004F80003FA06F422FA0CF31C4320FA0CF701FA6B
:1005080006F34FEA144E21FA0CF11F433B0CB1FBE2
:10051800FEF91FFA84F80EFB191143EA014109FBA1
:1005280008FA8A4502FA06F200FA06F308D96118B1
:1005380009F1FF3048D28A4546D9A9F10209214478
:10054800A1EB0A01BFB2B1FBFEF00EFB101147EAA6
:10055800014700FB08F8B84507D9E71900F1FF3152
:100568002ED2B8452CD90238274440EA0940A7EBD7
:100578000807A0FB02894F45C64649461AD317D03B
:100588005DB1B3EB0E0267EB010707FA0CFCF24012
:100598004CEA0202F740C5E9002700263146BDE8CB
:1005A800F0872E4628460BE70646E9E61846FDE69C
:1005B8004345E5D2B8EB020E69EB04010138DFE7E9
:1005C8000846D2E760468DE78146B9E7664675E793
:1005D80030464AE7ACF1020C394413E702383C4490
:1005E80024E700BF704700BF72B6FEE700B595B0BC
:1005F8003022002108A8FFF72BFE00230393049361
:100608000593069307930193184A116C41F08051A2
:100618001164126C02F080520192019A0293144AFA
:10062800116841F480411160126802F4804202921C
:10063800029A0222089201220B9210220C920E9327
:1006480008A800F045F868B90F2303930021049126
:1006580005910691079103A800F086FA20B915B014
:100668005DF804FBFFF7C0FFFFF7BEFF003802404C
:100678000070004008B500F0A9FBFFF7B7FFFEE7E0
:10068800FEE7FEE7FEE7FEE7FEE7704770477047C4
:1006980008B500F0B5FB08BD82B0002100910B4BF6
:1006A8005A6C42F480425A645A6C02F480420092B6
:1006B800009A01911A6C42F080521A641B6C03F084
:1006C80080530193019B02B0704700BF003802407D
:1006D800002800F0DF8170B582B00446036813F08B
:1006E800010F3BD0A64B9B6803F00C03042B2CD0C6
:1006F800A34B9B6803F00C03082B21D06368B3F568
:10070800803F4FD0B3F5A02F52D09D4B1A6822F4EA
:1007180080321A601A6822F480221A606368002BFB
:1007280050D000F079FB0546954B1B6813F4003F49
:1007380014D100F071FB401B6428F5D90320B0E107
:100748008F4B5B6813F4800FD8D08D4B1B6813F464
:10075800003F03D06368002B00F09E81236813F0EC
:10076800020F54D0864B9B6813F00C0F3ED0844B7D
:100778009B6803F00C03082B33D0E368002B67D089
:10078800804B01221A6000F047FB05467C4B1B6832
:1007980013F0020F53D100F03FFB401B0228F5D99C
:1007A80003207EE1764A136843F480331360B5E78B
:1007B800734B1A6842F480221A601A6842F4803235
:1007C8001A60ABE700F028FB05466D4B1B6813F475
:1007D800003FC3D000F020FB401B6428F5D903205C
:1007E8005FE1674B5B6813F4800FC6D1644B1B68ED
:1007F80013F0020F03D0E368012B40F04F81604AE9
:10080800136823F0F803216943EAC10313602368DE
:1008180013F0080F40D0636963B35B4B01221A6081
:1008280000F0FAFA0546564B5B6F13F0020F33D10E
:1008380000F0F2FA401B0228F5D9032031E1504AB2
:10084800136823F0F803216943EAC1031360DEE764
:100858004C4B00221A6000F0DFFA0546484B1B6833
:1008680013F0020FD3D000F0D7FA401B0228F5D9B5
:10087800032016E1444B00221A6000F0CDFA054629
:100888003F4B5B6F13F0020F06D000F0C5FA401B18
:100898000228F5D9032004E1236813F0040F78D067
:1008A800374B1B6C13F0805F0DD100230193344B41
:1008B8001A6C42F080521A641B6C03F08053019347
:1008C800019B012500E00025304B1B6813F4807F55
:1008D80021D0A368012B32D0052B36D0284B1A6FB4
:1008E80022F001021A671A6F22F004021A67A3683D
:1008F800002B34D000F090FA0646214B1B6F13F002
:10090800020F45D100F088FA801B41F288339842E3
:10091800F3D90320C5E01D4A136843F480731360BC
:1009280000F07AFA0646194B1B6813F4807FD0D181
:1009380000F072FA801B0228F5D90320B1E0104AB2
:10094800136F43F001031367D1E70D4B1A6F42F0A1
:1009580004021A671A6F42F001021A67C7E700F02B
:100968005BFA0646064B1B6F13F0020F10D000F01F
:1009780053FA801B41F288339842F3D9032090E060
:100988000038024000004742800E47420070004095
:10099800EDB9A369002B00F08380494A926802F000
:1009A8000C02082A51D0022B17D0464B00221A609D
:1009B80000F032FA0446424B1B6813F0007F42D025
:1009C80000F02AFA001B0228F5D9032069E03C4A06
:1009D800136C23F080531364DBE73A4B00221A6050
:1009E80000F01AFA0546364B1B6813F0007F06D054
:1009F80000F012FA401B0228F5D9032051E0E36900
:100A0800226A1343626A43EA8213A26A5208013ACD
:100A180043EA0243E26A43EA0263294A5360294BE4
:100A280001221A6000F0F8F90446254B1B6813F000
:100A3800007F06D100F0F0F9001B0228F5D9032049
:100A48002FE000202DE000202BE0012B2BD01C4BA9
:100A58005B6803F48001E269914226D103F03F020A
:100A6800216A8A4223D1616A47F6C0721A40B2EB02
:100A7800811F1ED103F44031A26A5208013AB1EB3A
:100A8800024F18D103F07063E26AB3EB026F14D11E
:100A9800002006E001207047012002E0012000E06C
:100AA800002002B070BD0120FBE70120F9E701201A
:100AB800F7E70120F5E70120F3E70120F1E700BFA0
:100AC8000038024060004742F8B5244B9B6803F0A9
:100AD8000C03042B3DD0082B3DD1204B5A6802F063
:100AE8003F025B6813F4800F12D01C4B5968C1F3A6
:100AF800881100231A48A1FB0001FFF7F9FB174BE7
:100B08005B68C3F3014301335B00B0FBF3F023E000
:100B1800124B5B68C3F388135C010025E41A65F186
:100B28000005AE0146EA9466A701381B66EB05018D
:100B3800CC0044EA5074C500E81844F100018B0267
:100B480043EA90538402204619460023FFF7D0FB5E
:100B5800D5E7034800E00348F8BD00BF003802406D
:100B680040787D010024F400002800F09B8070B5D7
:100B78000D4604464F4B1B6803F007038B4208D20F
:100B8800CBB24C4A1370136803F007038B4240F052
:100B98008B80236813F0020F17D013F0040F04D0D2
:100BA800454A936843F4E0539360236813F0080FB1
:100BB80004D0414A936843F4604393603E4A936883
:100BC80023F0F003A1680B439360236813F0010F2F
:100BD80032D06368012B21D09A1E012A25D9364AC2
:100BE800126812F0020F61D033498A6822F00302BA
:100BF80013438B6000F010F906462F4B9B6803F0F7
:100C08000C036268B3EB820F16D000F005F9801B65
:100C180041F288339842F0D9032042E0264A12680C
:100C280012F4003FE0D101203BE0234A126812F0A1
:100C3800007FD9D1012034E01E4B1B6803F0070365
:100C4800AB4207D9EAB21B4B1A701B6803F00703C3
:100C5800AB422DD1236813F0040F06D0164A9368CF
:100C680023F4E053E1680B439360236813F0080F03
:100C780007D0114A936823F46043216943EAC1030A
:100C88009360FFF721FF0C4B9B68C3F303130B4AD8
:100C9800D35CD8400A4B18600A4B186800F070F80B
:100CA800002070BD012070470120FAE70120F8E715
:100CB8000120F6E7003C024000380240AC0E000874
:100CC8000800002004000020074AD36823F4E063EA
:100CD8001B041B0C000200F4E060034343F0BF63F5
:100CE80043F40033D360704700ED00E030B4174B95
:100CF800DB68C3F30223C3F10704042C28BF0424D0
:100D08001D1D062D18D9033B4FF0FF3505FA04F4D5
:100D180021EA0401994005FA03F322EA030319437F
:100D280000280BDB0901C9B200F1604000F5614001
:100D380080F8001330BC70470023E5E700F00F008F
:100D48000901C9B2024B1954F4E700BF00ED00E0F5
:100D580014ED00E00138B0F1807F0AD2064B5860EC
:100D6800064AF02182F823100020986007221A60B2
:100D780070470120704700BF10E000E000ED00E080
:100D880010B504460E4B18784FF47A73B3FBF0F3A2
:100D98000C4A1068B0FBF3F0FFF7DCFF68B90F2CC2
:100DA80001D901200AE0002221464FF0FF30FFF769
:100DB8009DFF054B1C60002000E0012010BD00BF16
:100DC80000000020080000200400002008B50B4B9C
:100DD8001A6842F400721A601A6842F480621A6053
:100DE8001A6842F480721A600320FFF76DFF0F2023
:100DF800FFF7C6FFFFF750FC002008BD003C02408B
:100E0800034A1168034B1B780B441360704700BFFB
:100E18002800002000000020014B1868704700BF20
:100E280028000020034AD2F8883043F47003C2F83F
:100E38008830704700ED00E0DFF834D00D480E49E7
:100E48000E4A002302E0D458C4500433C4188C421C
:100E5800F9D30B4A0B4C002301E013600432A24281
:100E6800FBD3FFF7DFFFFFF7CFF9FFF703FC70476E
:100E780000000220000000200C000020CC0E00081A
:100E88000C0000202C000020FEE70000F8B500BF91
:100E9800F8BC08BC9E467047F8B500BFF8BC08BC53
:040EA8009E467047AB
:100EAC00000000000000000001020304060708090E
:080EBC006CF4FF7F010000004F
:040EC400F101000830
:040EC800C901000854
:0C0ECC0001000000100000000024F400F1
:0400000508000E41A0
:00000001FF
